{
  "src/contracts/ThreeWordAccountManagement.sol": {
    "ThreeWordAccount": {
      "abi": [
        {
          "inputs": [],
          "stateMutability": "nonpayable",
          "type": "constructor"
        },
        {
          "anonymous": false,
          "inputs": [
            {
              "indexed": true,
              "internalType": "address",
              "name": "user",
              "type": "address"
            },
            {
              "indexed": false,
              "internalType": "string",
              "name": "_accountName",
              "type": "string"
            }
          ],
          "name": "accountNameSet",
          "type": "event"
        },
        {
          "inputs": [
            {
              "internalType": "address",
              "name": "_address",
              "type": "address"
            }
          ],
          "name": "getAccountName",
          "outputs": [
            {
              "internalType": "string",
              "name": "",
              "type": "string"
            }
          ],
          "stateMutability": "view",
          "type": "function"
        },
        {
          "inputs": [
            {
              "internalType": "string",
              "name": "_accountName",
              "type": "string"
            }
          ],
          "name": "getAddressByAccountName",
          "outputs": [
            {
              "internalType": "address",
              "name": "",
              "type": "address"
            }
          ],
          "stateMutability": "view",
          "type": "function"
        },
        {
          "inputs": [],
          "name": "owner",
          "outputs": [
            {
              "internalType": "address",
              "name": "",
              "type": "address"
            }
          ],
          "stateMutability": "view",
          "type": "function"
        },
        {
          "inputs": [
            {
              "internalType": "string",
              "name": "_word1",
              "type": "string"
            },
            {
              "internalType": "string",
              "name": "_word2",
              "type": "string"
            },
            {
              "internalType": "string",
              "name": "_word3",
              "type": "string"
            },
            {
              "internalType": "address",
              "name": "account",
              "type": "address"
            }
          ],
          "name": "setAccountName",
          "outputs": [],
          "stateMutability": "nonpayable",
          "type": "function"
        }
      ],
      "evm": {
        "bytecode": {
          "linkReferences": {},
          "object": "608060405234801561001057600080fd5b50600080546001600160a01b031916331790556107c9806100326000396000f3fe608060405234801561001057600080fd5b506004361061004c5760003560e01c80636a02df5e146100515780638da5cb5b14610066578063c8605fce14610096578063d989c8db146100a9575b600080fd5b61006461005f36600461045e565b6100c9565b005b600054610079906001600160a01b031681565b6040516001600160a01b0390911681526020015b60405180910390f35b6100796100a43660046104f7565b6101ff565b6100bc6100b7366004610534565b6102f1565b60405161008d919061057a565b600084511180156100db575060008351115b80156100e8575060008251115b6101395760405162461bcd60e51b815260206004820152601b60248201527f416c6c20776f726473206d757374206265206e6f6e2d656d707479000000000060448201526064015b60405180910390fd5b6000848484604051602001610150939291906105ad565b60408051601f198184030181529181526001600160a01b038416600090815260016020522090915061018282826106a1565b50816002826040516101949190610761565b90815260405190819003602001812080546001600160a01b039384166001600160a01b0319909116179055908316907f3d72efabd2b5c5627b200becf2faa4deb4720b7a74521a93c5470947fbda1352906101f090849061057a565b60405180910390a25050505050565b6000806002836040516102129190610761565b908152604051908190036020019020546001600160a01b03169050806102eb5782600080805b835181101561028c578381815181106102535761025361077d565b01602001516001600160f81b031916601760f91b03610284578260000361027c57809250610284565b80915061028c565b600101610238565b50811580159061029b57508015155b6102e75760405162461bcd60e51b815260206004820152601b60248201527f496e76616c6964206163636f756e74206e616d6520666f726d617400000000006044820152606401610130565b5050505b92915050565b6001600160a01b03811660009081526001602052604081208054606092919061031990610616565b80601f016020809104026020016040519081016040528092919081815260200182805461034590610616565b80156103925780601f1061036757610100808354040283529160200191610392565b820191906000526020600020905b81548152906001019060200180831161037557829003601f168201915b5093979650505050505050565b634e487b7160e01b600052604160045260246000fd5b600082601f8301126103c657600080fd5b813567ffffffffffffffff808211156103e1576103e161039f565b604051601f8301601f19908116603f011681019082821181831017156104095761040961039f565b8160405283815286602085880101111561042257600080fd5b836020870160208301376000602085830101528094505050505092915050565b80356001600160a01b038116811461045957600080fd5b919050565b6000806000806080858703121561047457600080fd5b843567ffffffffffffffff8082111561048c57600080fd5b610498888389016103b5565b955060208701359150808211156104ae57600080fd5b6104ba888389016103b5565b945060408701359150808211156104d057600080fd5b506104dd878288016103b5565b9250506104ec60608601610442565b905092959194509250565b60006020828403121561050957600080fd5b813567ffffffffffffffff81111561052057600080fd5b61052c848285016103b5565b949350505050565b60006020828403121561054657600080fd5b61054f82610442565b9392505050565b60005b83811015610571578181015183820152602001610559565b50506000910152565b6020815260008251806020840152610599816040850160208701610556565b601f01601f19169190910160400192915050565b622f2f2f60e81b8152600084516105cb816003850160208901610556565b8083019050601760f91b80600383015285516105ee816004850160208a01610556565b60049201918201528351610609816005840160208801610556565b0160050195945050505050565b600181811c9082168061062a57607f821691505b60208210810361064a57634e487b7160e01b600052602260045260246000fd5b50919050565b601f82111561069c576000816000526020600020601f850160051c810160208610156106795750805b601f850160051c820191505b8181101561069857828155600101610685565b5050505b505050565b815167ffffffffffffffff8111156106bb576106bb61039f565b6106cf816106c98454610616565b84610650565b602080601f83116001811461070457600084156106ec5750858301515b600019600386901b1c1916600185901b178555610698565b600085815260208120601f198616915b8281101561073357888601518255948401946001909101908401610714565b50858210156107515787850151600019600388901b60f8161c191681555b5050505050600190811b01905550565b60008251610773818460208701610556565b9190910192915050565b634e487b7160e01b600052603260045260246000fdfea26469706673582212209f058d8c7299e37bb44c5b5cca54f9deb68e53de7328098f159957d0e9d93c6664736f6c63430008180033",
          "opcodes": "PUSH1 0x80 PUSH1 0x40 MSTORE CALLVALUE DUP1 ISZERO PUSH2 0x10 JUMPI PUSH1 0x0 DUP1 REVERT JUMPDEST POP PUSH1 0x0 DUP1 SLOAD PUSH1 0x1 PUSH1 0x1 PUSH1 0xA0 SHL SUB NOT AND CALLER OR SWAP1 SSTORE PUSH2 0x7C9 DUP1 PUSH2 0x32 PUSH1 0x0 CODECOPY PUSH1 0x0 RETURN INVALID PUSH1 0x80 PUSH1 0x40 MSTORE CALLVALUE DUP1 ISZERO PUSH2 0x10 JUMPI PUSH1 0x0 DUP1 REVERT JUMPDEST POP PUSH1 0x4 CALLDATASIZE LT PUSH2 0x4C JUMPI PUSH1 0x0 CALLDATALOAD PUSH1 0xE0 SHR DUP1 PUSH4 0x6A02DF5E EQ PUSH2 0x51 JUMPI DUP1 PUSH4 0x8DA5CB5B EQ PUSH2 0x66 JUMPI DUP1 PUSH4 0xC8605FCE EQ PUSH2 0x96 JUMPI DUP1 PUSH4 0xD989C8DB EQ PUSH2 0xA9 JUMPI JUMPDEST PUSH1 0x0 DUP1 REVERT JUMPDEST PUSH2 0x64 PUSH2 0x5F CALLDATASIZE PUSH1 0x4 PUSH2 0x45E JUMP JUMPDEST PUSH2 0xC9 JUMP JUMPDEST STOP JUMPDEST PUSH1 0x0 SLOAD PUSH2 0x79 SWAP1 PUSH1 0x1 PUSH1 0x1 PUSH1 0xA0 SHL SUB AND DUP2 JUMP JUMPDEST PUSH1 0x40 MLOAD PUSH1 0x1 PUSH1 0x1 PUSH1 0xA0 SHL SUB SWAP1 SWAP2 AND DUP2 MSTORE PUSH1 0x20 ADD JUMPDEST PUSH1 0x40 MLOAD DUP1 SWAP2 SUB SWAP1 RETURN JUMPDEST PUSH2 0x79 PUSH2 0xA4 CALLDATASIZE PUSH1 0x4 PUSH2 0x4F7 JUMP JUMPDEST PUSH2 0x1FF JUMP JUMPDEST PUSH2 0xBC PUSH2 0xB7 CALLDATASIZE PUSH1 0x4 PUSH2 0x534 JUMP JUMPDEST PUSH2 0x2F1 JUMP JUMPDEST PUSH1 0x40 MLOAD PUSH2 0x8D SWAP2 SWAP1 PUSH2 0x57A JUMP JUMPDEST PUSH1 0x0 DUP5 MLOAD GT DUP1 ISZERO PUSH2 0xDB JUMPI POP PUSH1 0x0 DUP4 MLOAD GT JUMPDEST DUP1 ISZERO PUSH2 0xE8 JUMPI POP PUSH1 0x0 DUP3 MLOAD GT JUMPDEST PUSH2 0x139 JUMPI PUSH1 0x40 MLOAD PUSH3 0x461BCD PUSH1 0xE5 SHL DUP2 MSTORE PUSH1 0x20 PUSH1 0x4 DUP3 ADD MSTORE PUSH1 0x1B PUSH1 0x24 DUP3 ADD MSTORE PUSH32 0x416C6C20776F726473206D757374206265206E6F6E2D656D7074790000000000 PUSH1 0x44 DUP3 ADD MSTORE PUSH1 0x64 ADD JUMPDEST PUSH1 0x40 MLOAD DUP1 SWAP2 SUB SWAP1 REVERT JUMPDEST PUSH1 0x0 DUP5 DUP5 DUP5 PUSH1 0x40 MLOAD PUSH1 0x20 ADD PUSH2 0x150 SWAP4 SWAP3 SWAP2 SWAP1 PUSH2 0x5AD JUMP JUMPDEST PUSH1 0x40 DUP1 MLOAD PUSH1 0x1F NOT DUP2 DUP5 SUB ADD DUP2 MSTORE SWAP2 DUP2 MSTORE PUSH1 0x1 PUSH1 0x1 PUSH1 0xA0 SHL SUB DUP5 AND PUSH1 0x0 SWAP1 DUP2 MSTORE PUSH1 0x1 PUSH1 0x20 MSTORE KECCAK256 SWAP1 SWAP2 POP PUSH2 0x182 DUP3 DUP3 PUSH2 0x6A1 JUMP JUMPDEST POP DUP2 PUSH1 0x2 DUP3 PUSH1 0x40 MLOAD PUSH2 0x194 SWAP2 SWAP1 PUSH2 0x761 JUMP JUMPDEST SWAP1 DUP2 MSTORE PUSH1 0x40 MLOAD SWAP1 DUP2 SWAP1 SUB PUSH1 0x20 ADD DUP2 KECCAK256 DUP1 SLOAD PUSH1 0x1 PUSH1 0x1 PUSH1 0xA0 SHL SUB SWAP4 DUP5 AND PUSH1 0x1 PUSH1 0x1 PUSH1 0xA0 SHL SUB NOT SWAP1 SWAP2 AND OR SWAP1 SSTORE SWAP1 DUP4 AND SWAP1 PUSH32 0x3D72EFABD2B5C5627B200BECF2FAA4DEB4720B7A74521A93C5470947FBDA1352 SWAP1 PUSH2 0x1F0 SWAP1 DUP5 SWAP1 PUSH2 0x57A JUMP JUMPDEST PUSH1 0x40 MLOAD DUP1 SWAP2 SUB SWAP1 LOG2 POP POP POP POP POP JUMP JUMPDEST PUSH1 0x0 DUP1 PUSH1 0x2 DUP4 PUSH1 0x40 MLOAD PUSH2 0x212 SWAP2 SWAP1 PUSH2 0x761 JUMP JUMPDEST SWAP1 DUP2 MSTORE PUSH1 0x40 MLOAD SWAP1 DUP2 SWAP1 SUB PUSH1 0x20 ADD SWAP1 KECCAK256 SLOAD PUSH1 0x1 PUSH1 0x1 PUSH1 0xA0 SHL SUB AND SWAP1 POP DUP1 PUSH2 0x2EB JUMPI DUP3 PUSH1 0x0 DUP1 DUP1 JUMPDEST DUP4 MLOAD DUP2 LT ISZERO PUSH2 0x28C JUMPI DUP4 DUP2 DUP2 MLOAD DUP2 LT PUSH2 0x253 JUMPI PUSH2 0x253 PUSH2 0x77D JUMP JUMPDEST ADD PUSH1 0x20 ADD MLOAD PUSH1 0x1 PUSH1 0x1 PUSH1 0xF8 SHL SUB NOT AND PUSH1 0x17 PUSH1 0xF9 SHL SUB PUSH2 0x284 JUMPI DUP3 PUSH1 0x0 SUB PUSH2 0x27C JUMPI DUP1 SWAP3 POP PUSH2 0x284 JUMP JUMPDEST DUP1 SWAP2 POP PUSH2 0x28C JUMP JUMPDEST PUSH1 0x1 ADD PUSH2 0x238 JUMP JUMPDEST POP DUP2 ISZERO DUP1 ISZERO SWAP1 PUSH2 0x29B JUMPI POP DUP1 ISZERO ISZERO JUMPDEST PUSH2 0x2E7 JUMPI PUSH1 0x40 MLOAD PUSH3 0x461BCD PUSH1 0xE5 SHL DUP2 MSTORE PUSH1 0x20 PUSH1 0x4 DUP3 ADD MSTORE PUSH1 0x1B PUSH1 0x24 DUP3 ADD MSTORE PUSH32 0x496E76616C6964206163636F756E74206E616D6520666F726D61740000000000 PUSH1 0x44 DUP3 ADD MSTORE PUSH1 0x64 ADD PUSH2 0x130 JUMP JUMPDEST POP POP POP JUMPDEST SWAP3 SWAP2 POP POP JUMP JUMPDEST PUSH1 0x1 PUSH1 0x1 PUSH1 0xA0 SHL SUB DUP2 AND PUSH1 0x0 SWAP1 DUP2 MSTORE PUSH1 0x1 PUSH1 0x20 MSTORE PUSH1 0x40 DUP2 KECCAK256 DUP1 SLOAD PUSH1 0x60 SWAP3 SWAP2 SWAP1 PUSH2 0x319 SWAP1 PUSH2 0x616 JUMP JUMPDEST DUP1 PUSH1 0x1F ADD PUSH1 0x20 DUP1 SWAP2 DIV MUL PUSH1 0x20 ADD PUSH1 0x40 MLOAD SWAP1 DUP2 ADD PUSH1 0x40 MSTORE DUP1 SWAP3 SWAP2 SWAP1 DUP2 DUP2 MSTORE PUSH1 0x20 ADD DUP3 DUP1 SLOAD PUSH2 0x345 SWAP1 PUSH2 0x616 JUMP JUMPDEST DUP1 ISZERO PUSH2 0x392 JUMPI DUP1 PUSH1 0x1F LT PUSH2 0x367 JUMPI PUSH2 0x100 DUP1 DUP4 SLOAD DIV MUL DUP4 MSTORE SWAP2 PUSH1 0x20 ADD SWAP2 PUSH2 0x392 JUMP JUMPDEST DUP3 ADD SWAP2 SWAP1 PUSH1 0x0 MSTORE PUSH1 0x20 PUSH1 0x0 KECCAK256 SWAP1 JUMPDEST DUP2 SLOAD DUP2 MSTORE SWAP1 PUSH1 0x1 ADD SWAP1 PUSH1 0x20 ADD DUP1 DUP4 GT PUSH2 0x375 JUMPI DUP3 SWAP1 SUB PUSH1 0x1F AND DUP3 ADD SWAP2 JUMPDEST POP SWAP4 SWAP8 SWAP7 POP POP POP POP POP POP POP JUMP JUMPDEST PUSH4 0x4E487B71 PUSH1 0xE0 SHL PUSH1 0x0 MSTORE PUSH1 0x41 PUSH1 0x4 MSTORE PUSH1 0x24 PUSH1 0x0 REVERT JUMPDEST PUSH1 0x0 DUP3 PUSH1 0x1F DUP4 ADD SLT PUSH2 0x3C6 JUMPI PUSH1 0x0 DUP1 REVERT JUMPDEST DUP2 CALLDATALOAD PUSH8 0xFFFFFFFFFFFFFFFF DUP1 DUP3 GT ISZERO PUSH2 0x3E1 JUMPI PUSH2 0x3E1 PUSH2 0x39F JUMP JUMPDEST PUSH1 0x40 MLOAD PUSH1 0x1F DUP4 ADD PUSH1 0x1F NOT SWAP1 DUP2 AND PUSH1 0x3F ADD AND DUP2 ADD SWAP1 DUP3 DUP3 GT DUP2 DUP4 LT OR ISZERO PUSH2 0x409 JUMPI PUSH2 0x409 PUSH2 0x39F JUMP JUMPDEST DUP2 PUSH1 0x40 MSTORE DUP4 DUP2 MSTORE DUP7 PUSH1 0x20 DUP6 DUP9 ADD ADD GT ISZERO PUSH2 0x422 JUMPI PUSH1 0x0 DUP1 REVERT JUMPDEST DUP4 PUSH1 0x20 DUP8 ADD PUSH1 0x20 DUP4 ADD CALLDATACOPY PUSH1 0x0 PUSH1 0x20 DUP6 DUP4 ADD ADD MSTORE DUP1 SWAP5 POP POP POP POP POP SWAP3 SWAP2 POP POP JUMP JUMPDEST DUP1 CALLDATALOAD PUSH1 0x1 PUSH1 0x1 PUSH1 0xA0 SHL SUB DUP2 AND DUP2 EQ PUSH2 0x459 JUMPI PUSH1 0x0 DUP1 REVERT JUMPDEST SWAP2 SWAP1 POP JUMP JUMPDEST PUSH1 0x0 DUP1 PUSH1 0x0 DUP1 PUSH1 0x80 DUP6 DUP8 SUB SLT ISZERO PUSH2 0x474 JUMPI PUSH1 0x0 DUP1 REVERT JUMPDEST DUP5 CALLDATALOAD PUSH8 0xFFFFFFFFFFFFFFFF DUP1 DUP3 GT ISZERO PUSH2 0x48C JUMPI PUSH1 0x0 DUP1 REVERT JUMPDEST PUSH2 0x498 DUP9 DUP4 DUP10 ADD PUSH2 0x3B5 JUMP JUMPDEST SWAP6 POP PUSH1 0x20 DUP8 ADD CALLDATALOAD SWAP2 POP DUP1 DUP3 GT ISZERO PUSH2 0x4AE JUMPI PUSH1 0x0 DUP1 REVERT JUMPDEST PUSH2 0x4BA DUP9 DUP4 DUP10 ADD PUSH2 0x3B5 JUMP JUMPDEST SWAP5 POP PUSH1 0x40 DUP8 ADD CALLDATALOAD SWAP2 POP DUP1 DUP3 GT ISZERO PUSH2 0x4D0 JUMPI PUSH1 0x0 DUP1 REVERT JUMPDEST POP PUSH2 0x4DD DUP8 DUP3 DUP9 ADD PUSH2 0x3B5 JUMP JUMPDEST SWAP3 POP POP PUSH2 0x4EC PUSH1 0x60 DUP7 ADD PUSH2 0x442 JUMP JUMPDEST SWAP1 POP SWAP3 SWAP6 SWAP2 SWAP5 POP SWAP3 POP JUMP JUMPDEST PUSH1 0x0 PUSH1 0x20 DUP3 DUP5 SUB SLT ISZERO PUSH2 0x509 JUMPI PUSH1 0x0 DUP1 REVERT JUMPDEST DUP2 CALLDATALOAD PUSH8 0xFFFFFFFFFFFFFFFF DUP2 GT ISZERO PUSH2 0x520 JUMPI PUSH1 0x0 DUP1 REVERT JUMPDEST PUSH2 0x52C DUP5 DUP3 DUP6 ADD PUSH2 0x3B5 JUMP JUMPDEST SWAP5 SWAP4 POP POP POP POP JUMP JUMPDEST PUSH1 0x0 PUSH1 0x20 DUP3 DUP5 SUB SLT ISZERO PUSH2 0x546 JUMPI PUSH1 0x0 DUP1 REVERT JUMPDEST PUSH2 0x54F DUP3 PUSH2 0x442 JUMP JUMPDEST SWAP4 SWAP3 POP POP POP JUMP JUMPDEST PUSH1 0x0 JUMPDEST DUP4 DUP2 LT ISZERO PUSH2 0x571 JUMPI DUP2 DUP2 ADD MLOAD DUP4 DUP3 ADD MSTORE PUSH1 0x20 ADD PUSH2 0x559 JUMP JUMPDEST POP POP PUSH1 0x0 SWAP2 ADD MSTORE JUMP JUMPDEST PUSH1 0x20 DUP2 MSTORE PUSH1 0x0 DUP3 MLOAD DUP1 PUSH1 0x20 DUP5 ADD MSTORE PUSH2 0x599 DUP2 PUSH1 0x40 DUP6 ADD PUSH1 0x20 DUP8 ADD PUSH2 0x556 JUMP JUMPDEST PUSH1 0x1F ADD PUSH1 0x1F NOT AND SWAP2 SWAP1 SWAP2 ADD PUSH1 0x40 ADD SWAP3 SWAP2 POP POP JUMP JUMPDEST PUSH3 0x2F2F2F PUSH1 0xE8 SHL DUP2 MSTORE PUSH1 0x0 DUP5 MLOAD PUSH2 0x5CB DUP2 PUSH1 0x3 DUP6 ADD PUSH1 0x20 DUP10 ADD PUSH2 0x556 JUMP JUMPDEST DUP1 DUP4 ADD SWAP1 POP PUSH1 0x17 PUSH1 0xF9 SHL DUP1 PUSH1 0x3 DUP4 ADD MSTORE DUP6 MLOAD PUSH2 0x5EE DUP2 PUSH1 0x4 DUP6 ADD PUSH1 0x20 DUP11 ADD PUSH2 0x556 JUMP JUMPDEST PUSH1 0x4 SWAP3 ADD SWAP2 DUP3 ADD MSTORE DUP4 MLOAD PUSH2 0x609 DUP2 PUSH1 0x5 DUP5 ADD PUSH1 0x20 DUP9 ADD PUSH2 0x556 JUMP JUMPDEST ADD PUSH1 0x5 ADD SWAP6 SWAP5 POP POP POP POP POP JUMP JUMPDEST PUSH1 0x1 DUP2 DUP2 SHR SWAP1 DUP3 AND DUP1 PUSH2 0x62A JUMPI PUSH1 0x7F DUP3 AND SWAP2 POP JUMPDEST PUSH1 0x20 DUP3 LT DUP2 SUB PUSH2 0x64A JUMPI PUSH4 0x4E487B71 PUSH1 0xE0 SHL PUSH1 0x0 MSTORE PUSH1 0x22 PUSH1 0x4 MSTORE PUSH1 0x24 PUSH1 0x0 REVERT JUMPDEST POP SWAP2 SWAP1 POP JUMP JUMPDEST PUSH1 0x1F DUP3 GT ISZERO PUSH2 0x69C JUMPI PUSH1 0x0 DUP2 PUSH1 0x0 MSTORE PUSH1 0x20 PUSH1 0x0 KECCAK256 PUSH1 0x1F DUP6 ADD PUSH1 0x5 SHR DUP2 ADD PUSH1 0x20 DUP7 LT ISZERO PUSH2 0x679 JUMPI POP DUP1 JUMPDEST PUSH1 0x1F DUP6 ADD PUSH1 0x5 SHR DUP3 ADD SWAP2 POP JUMPDEST DUP2 DUP2 LT ISZERO PUSH2 0x698 JUMPI DUP3 DUP2 SSTORE PUSH1 0x1 ADD PUSH2 0x685 JUMP JUMPDEST POP POP POP JUMPDEST POP POP POP JUMP JUMPDEST DUP2 MLOAD PUSH8 0xFFFFFFFFFFFFFFFF DUP2 GT ISZERO PUSH2 0x6BB JUMPI PUSH2 0x6BB PUSH2 0x39F JUMP JUMPDEST PUSH2 0x6CF DUP2 PUSH2 0x6C9 DUP5 SLOAD PUSH2 0x616 JUMP JUMPDEST DUP5 PUSH2 0x650 JUMP JUMPDEST PUSH1 0x20 DUP1 PUSH1 0x1F DUP4 GT PUSH1 0x1 DUP2 EQ PUSH2 0x704 JUMPI PUSH1 0x0 DUP5 ISZERO PUSH2 0x6EC JUMPI POP DUP6 DUP4 ADD MLOAD JUMPDEST PUSH1 0x0 NOT PUSH1 0x3 DUP7 SWAP1 SHL SHR NOT AND PUSH1 0x1 DUP6 SWAP1 SHL OR DUP6 SSTORE PUSH2 0x698 JUMP JUMPDEST PUSH1 0x0 DUP6 DUP2 MSTORE PUSH1 0x20 DUP2 KECCAK256 PUSH1 0x1F NOT DUP7 AND SWAP2 JUMPDEST DUP3 DUP2 LT ISZERO PUSH2 0x733 JUMPI DUP9 DUP7 ADD MLOAD DUP3 SSTORE SWAP5 DUP5 ADD SWAP5 PUSH1 0x1 SWAP1 SWAP2 ADD SWAP1 DUP5 ADD PUSH2 0x714 JUMP JUMPDEST POP DUP6 DUP3 LT ISZERO PUSH2 0x751 JUMPI DUP8 DUP6 ADD MLOAD PUSH1 0x0 NOT PUSH1 0x3 DUP9 SWAP1 SHL PUSH1 0xF8 AND SHR NOT AND DUP2 SSTORE JUMPDEST POP POP POP POP POP PUSH1 0x1 SWAP1 DUP2 SHL ADD SWAP1 SSTORE POP JUMP JUMPDEST PUSH1 0x0 DUP3 MLOAD PUSH2 0x773 DUP2 DUP5 PUSH1 0x20 DUP8 ADD PUSH2 0x556 JUMP JUMPDEST SWAP2 SWAP1 SWAP2 ADD SWAP3 SWAP2 POP POP JUMP JUMPDEST PUSH4 0x4E487B71 PUSH1 0xE0 SHL PUSH1 0x0 MSTORE PUSH1 0x32 PUSH1 0x4 MSTORE PUSH1 0x24 PUSH1 0x0 REVERT INVALID LOG2 PUSH5 0x6970667358 0x22 SLT KECCAK256 SWAP16 SDIV DUP14 DUP13 PUSH19 0x99E37BB44C5B5CCA54F9DEB68E53DE7328098F ISZERO SWAP10 JUMPI 0xD0 0xE9 0xD9 EXTCODECOPY PUSH7 0x64736F6C634300 ADDMOD XOR STOP CALLER "
        },
        "methodIdentifiers": {
          "getAccountName(address)": "d989c8db",
          "getAddressByAccountName(string)": "c8605fce",
          "owner()": "8da5cb5b",
          "setAccountName(string,string,string,address)": "6a02df5e"
        }
      }
    }
  }
}